:020000040800F2
:100000000005002029170008FD140008FF1400084F
:100010000115000803150008051500080000000080
:1000200000000000000000000000000007150008AC
:1000300009150008000000000B1500080D15000848
:100040004D170008511700085517000859170008E8
:100050005D17000861170008651700086917000898
:100060006D17000871170008751700087917000848
:100070007D1700081B1500088117000821150008CE
:1000800085170008891700088D17000891170008C8
:1000900095170008991700089D170008A117000878
:1000A000A5170008A9170008AD170008B117000828
:1000B00027150008B517000889150008B9170008AA
:1000C000BD170008C1170008C5170008C9170008A8
:1000D000CD170008D1170008D5170008D917000858
:1000E000DD170008E1170008E51700082DE9F041C9
:1000F000044682B02078DFF85854C0074BD56868B2
:1001000000F00C00042807D0686800F00C000828F4
:100110000CD16868C00309D52868C0F340400028A6
:1001200039D06068002836D1012034E16068B0F52C
:10013000803F09D008B928680AE0B0F5A02F2868E8
:1001400006D140F480202860286840F4803005E023
:1001500020F480302860286820F4802028606068BF
:1001600060B100F03CFA07462868C0F3404090B9FF
:1001700000F035FAC01B6528F6D309E100F02FFA2C
:1001800007462868C0F3404028B100F028FAC01B99
:100190006528F6D3FCE02078DFF8C063800718D527
:1001A000686810F00C0F07D0686800F00C00082891
:1001B00026D16868C00323D400F0F3F81CBF20697F
:1001C0000128B1D12868616920F0F80040EAC10037
:1001D00028602078000732D5A169DFF88403002960
:1001E0004ED00121016000F0FAF90746686AC0F3B9
:1001F000400010BB00F0F3F9C01B0328F6D3C7E0A2
:10020000206968B10120306000F0E9F9074600F08C
:10021000C8F8D7D100F0E3F9C01B0328F7D3B7E043
:10022000306000F0DCF9074600F0BBF8D1D000F0F8
:10023000D6F9C01B0328F7D3AAE000F0D3F9207841
:10024000400761D5E869DFF81C8340F08050E86121
:10025000E86900F0805000900098D8F8000040F461
:100260008070C8F8000000F0BAF90746D8F800001E
:10027000C00514D400F0B3F9C01B6528F6D387E09D
:10028000016000F0ACF90746686AC0F3400000283E
:10029000D5D000F0A4F9C01B0328F5D378E0E068BE
:1002A000012808D008B9286A09E00528286A06D17B
:1002B00040F004002862286A40F0010005E0400890
:1002C00040002862286A20F00400286241F2893840
:1002D000E06860B100F083F90746286AC0F3400087
:1002E00090B900F07CF9C01B4045F6D350E000F017
:1002F00076F90746286AC0F3400028B100F06FF98C
:10030000C01B4045F6D343E0E069002842D069684D
:1003100001F00C0108293FF407AF02282CD100F0AE
:100320003CF807462868C0F3406028B100F057F950
:10033000C01B0328F6D32BE0206AB0F5803F05D11F
:100340006868A16820F40030084368606868216A22
:1003500020F474100843616A08436860012000F0CB
:100360001DF807462868C0F3406098B900F037F9D7
:10037000C01B0328F6D30BE000F00FF807462868EF
:10038000C0F3406030B100F02AF9C01B0328F6D357
:10039000032000E00020BDE8F6810020306600F078
:1003A0001EB92868C0F34000002870472DE9F843C3
:1003B0006D4E04463068884600F00700404502D282
:1003C00000F07DF856D12078614F800705D5786818
:1003D000A16820F0F000084378602078C00741D57C
:1003E0006068012803D13968C1F3404104E0022864
:1003F000396803D1C1F3406121B93BE0C1F3400149
:10040000002937D07968890840EA8100786041F294
:10041000893900F0E4F80546606801280AD1786857
:1004200000F00C0004281DD000F0D9F8401B48450E
:10043000F5D315E002280AD1786800F00C000828EE
:1004400010D000F0CCF8401B4845F5D308E07868A0
:1004500010F00C0F06D000F0C2F8401B4845F6D350
:1004600003202AE0306800F00700804504D200F045
:1004700026F801D0012020E02078400705D57868D3
:10048000E16820F4E060084378602078000706D532
:100490007868216920F4605040EAC100786000F07B
:1004A00018F87A683149C2F30312515CC8402A49EE
:1004B0000860002000F07CF80020BDE8F28330687E
:1004C000C00848EAC0003060306800F007004045CE
:1004D000704700B585B001A80FF2A001102200F00E
:1004E00091F80FF2A8000088ADF8000020480168DC
:1004F00001F00C02082A12D101AAC1F38343C903F7
:100500009A5C09D500686B46C0F340401149C05C55
:10051000B1FBF0F0504303E01648504300E00D48B3
:1005200005B000BD0C48006870470B48104A0068D1
:1005300012681149C2F3022206E007480C4A00681B
:1005400012680D49C2F3C222515CC84070470000D6
:100550000010024000127A00FC000020000042421D
:10056000800442420070004000200240141600083F
:100570000410024000093D0044170008020304056E
:10058000060708090A0B0C0D0E0F101001020000DF
:1005900080B51A48016841F010010160032000F0A5
:1005A0006AF8002000F004F800F0CAF8002002BD4C
:1005B00010B50446FFF7B6FF4FF47A71B0FBF1F0C7
:1005C00000F08DF8002221464FF0FF3000F060F877
:1005D000002010BD0A480168491C016070470848A6
:1005E0000068704711B581B0FFF7F9FF0446FFF7C7
:1005F000F6FF0199001B8842F9D313BD0020024089
:1006000070050020103A07D330B4B1E83810103A22
:10061000A0E83810F9D230BC530724BFB1E8081065
:10062000A0E8081044BF51F8043B40F8043BD2074F
:1006300024BF31F8022B20F8022B44BF0B78037043
:100640007047083A07D3B1E80810083A40F8043B6D
:1006500040F804CBF7D25307E4E700000901002873
:1006600006D52E4A00F00F00801800F8041C7047D1
:100670002B4A815470472B490A684FF6FF031A40F2
:1006800000F0070042EA0020274A10430860704744
:1006900038B5244B1B68C3F30223C3F10704052CB0
:1006A00028BF04241D1D072D34BF0023DB1E012598
:1006B00005FA04F4641E2140994005FA03F35B1E19
:1006C0001A401143BDE83440C8E7012100F01F0281
:1006D0009140164AFFE7400942F82010704710B5D4
:1006E000401EB0F1807F01D3012010BD104C60602E
:1006F0000F214FF0FF30FFF7B1FF0020A06007206F
:100700002060002010BD0A49042808680CBF40F092
:10071000040020F0040008607047000018ED00E0BD
:1007200000E400E00CED00E00000FA0500E100E06C
:1007300010E000E080B500F001F801BD7047000056
:1007400080B56648016841F001010160006800F071
:100750000100009000980320FFF78DFF0022002188
:100760006FF00B00FFF794FF002200216FF00A00EA
:10077000FFF78EFF002200216FF00900FFF788FFCE
:10078000002200216FF00400FFF782FF0022002109
:100790006FF00300FFF77CFF002200216FF00100E3
:1007A000FFF776FFBDE80840002200214FF0FF3040
:1007B000FFF76EBF2DE9F041044686B02068484A35
:1007C000DFF82081454990424FF480654FF48076F0
:1007D00019D10868444F40F480500860086800F45C
:1007E0008050049069460498202000F047F840208B
:1007F00000F03DF801200290384600F081F83B4FB0
:10080000C7F800801CE03A4A90422DD14868394F21
:1008100040F480404860486800F480400490694695
:1008200004984FF4005000F029F84FF4804000F095
:100830001EF8384600F064F82F4F08F128003860A1
:10084000102078600020B8608020F8603E617D61F3
:100850002020B8610020F861384600F025F908B181
:1008600000F04FFC27647C6206B0BDE8F081009088
:1008700069460220019003200390704700900020F9
:1008800001900290384600F03BB800681B4988424E
:1008900000D0704710B51148134C86B0016841F480
:1008A0008041016001A9006800F480400090009838
:1008B0004FF4007001900220029003200490204623
:1008C00000F01EF84FF48060019001A90020029012
:1008D0000390204600F014F806B010BD1810024036
:1008E00000300140300002400008014000050020B7
:1008F00000380040000C014038050020003801405D
:100900002DE9F8474FF0000E00225A4BDFF86881BE
:10091000DFF868914FF00F0A012707FA02F60F6817
:100920003740B74240F0A0804C685CB3012C1AD02D
:10093000022C1FD0032C31D0112C17D0122C1DD01B
:100940004F4DAC421CBF4F4DAC421BD04E4DAC4244
:100950001CBF4E4DAC4215D04D4DAC421CBF4D4D51
:10096000AC420FD01CE0D1F80CE019E0CC6804F1E7
:10097000040E15E0CC6804F1080E11E0CC6804F117
:100980000C0E0DE08C6814B94FF0040E08E0012C39
:100990004FF0080E14BF4661066101E04FF0000EF3
:1009A000FF2F02D88446940004E0A2F1080400F16D
:1009B000040CA400DCF800500AFA04F6B5430EFA61
:1009C00004F42C43CCF800404C68E4004CD5D9F832
:1009D000004044F00104C9F800404FEA920CD9F8F5
:1009E000005005F001040094009C58F82C5002F0CF
:1009F0000304A4000AFA04F6B543274EB04208BF28
:100A000000260ED0254EB04208BF012609D0244E44
:100A1000B04208BF022604D0224EB0420CBF0326CB
:100A2000042606FA04F42C4348F82C40FD434C6895
:100A3000E4031C684CBF3C432C401C604C68A4037E
:100A40005C684CBF3C432C405C604C68E4029C6892
:100A50004CBF3C432C409C604C68A40247BFDC6800
:100A60002743DF682F40DF60521C102AFFF454AF89
:100A7000BDE8F18700040140080001401810024061
:100A800000001110000012100000211000002210C0
:100A9000000031100000321000080140000C01403D
:100AA000001001400014014008B90120704790F87F
:100AB000211009B980F82010022180F82110016866
:100AC0000A6843686FF30D121A4383681A43C368B8
:100AD0001A4303691A4343691A4383691A43C36972
:100AE0001A430A6000214163012180F8211000208F
:100AF000704738B5044694F82000012801D102203F
:100B000032BD00F013F82068016841F00201016075
:100B1000016841F004010160016841F008010160D1
:100B2000016841F001010160002032BD012084F81C
:100B30002000022084F82100206805686D086D00FF
:100B40000560204648E1012084F82100002084F857
:100B5000200070472DE9F0479E4DDFF860822E6837
:100B6000DFF86492DFF864A204464FF00060D4F826
:100B700000E0C6454FF400014FF400224FF400435B
:100B80004FF4006C08BF082716D0D64508BF802751
:100B900012D0CE4508BF67460ED08A4FBE4508BF6B
:100BA0001F4609D0864FBE4508BF174604D0884F60
:100BB000BE450CBF0F4607463E423AD0DEF8006005
:100BC000360736D5DEF8006026F00806CEF800605D
:100BD0002668464508BF082015D0564508BF802026
:100BE00011D04E4508BF60460DD0764FBE4208BFBB
:100BF000184608D0724B9E4208BF104603D0744A74
:100C0000964208BF0846686004F1280104F12800F4
:100C1000C06840F00100C860042084F82100002072
:100C200084F8200004F12800816808001CBF2046D9
:100C300088472E68D4F800E0C6454FF080604FF436
:100C400080014FF480224FF480434FF4806C08BF42
:100C5000042716D0D64508BF402712D0CE4508BF7E
:100C600067460ED0574FBE4508BF1F4609D0544FA8
:100C7000BE4508BF174604D0554FBE450CBF0F46B2
:100C800007463E4233D0DEF8006076072FD5DEF807
:100C90000060B60605D4DEF8006026F00406CEF843
:100CA00000602668464508BF042015D0564508BF99
:100CB000402011D04E4508BF60460DD0414FBE4286
:100CC00008BF184608D03E4B9E4208BF104603D0CE
:100CD0003F4A964208BF08466860112084F8210008
:100CE00004F12800416808001CBF204688472E6890
:100CF000D4F800E0C6454FF000704FF400114FF4F7
:100D000000324FF400534FF4007C08BF022716D086
:100D1000D64508BF202712D0CE4508BF67460ED063
:100D2000284FBE4508BF1F4609D0254FBE4508BF06
:100D3000174604D0264FBE450CBF0F4607463E421D
:100D400038D0DEF80060B60734D5DEF80060B606AD
:100D500005D4DEF8006026F00206CEF800602668B2
:100D6000464508BF022015D0564508BF202011D0A7
:100D70004E4508BF60460DD0124FBE4208BF184610
:100D800008D00F4B9E4208BF104603D0104A96422F
:100D900008BF0846686004F1280104F12800C06813
:100DA000C860FFF7D0FEA16A080003D02046BDE866
:100DB000F0470847BDE8F087000000000800024047
:100DC0005800024044000240300002401C00024033
:100DD0006C0002400000024010B504686360406887
:100DE000102807BFA260E160A160E26010BD0000B2
:100DF0002DE9F041B24C86B0002020806080E08078
:100E0000A080FFF7C5FB00F0E4F8AE4F786840F033
:100E1000040078604FF40075786800F004000090DA
:100E20000098786840F008007860786800F0080062
:100E300000900098386840F001003860386800F091
:100E4000010000900098A048A06025620020E060AA
:100E500020614FF4006060610020A061E061082023
:100E600060620020A062E06220630A20606304F1F7
:100E7000080000F047F900B1FEE79448A567206636
:100E800004F1840500206066A066E0662067606764
:100E9000E067C4F88000286068600A20A86004F158
:100EA000600000F02FF900B1FEE7B868884EDFF867
:100EB000248240F00400B86001A9B86800F0040082
:100EC00000900098B06940F40070B061B06840F0E4
:100ED0005500B0604CF25030F062F06840F0020013
:100EE000F06040200190002000F06BF80022042107
:100EF0001E20FFF7CDFB1E20FFF7E7FBB86840F090
:100F00000200B86001A9B868734F00F002000090B9
:100F10000098F86840F00200F860B86840F01000EF
:100F2000B860B86820F02000B860B86820F04000D1
:100F3000B860B86840F00700B8601E20F8620F2063
:100F40003864F86940F4D040F861386840F08000B7
:100F50003860786940F001007861386A40F44050A8
:100F600038620220019000F02CF800F06AF85B482B
:100F700068634FF4E130A8630020E8632864686484
:100F80000C20A8640020E864286504F1B80000F093
:100F9000FDF800B1FEE7022204F1F80104F10800B7
:100FA00000F0A0F9306840F001003060386840F08F
:100FB000010038604FF08040016841F0010101609C
:100FC000FEE7029001200390032004904046FFF7C3
:100FD00097BC00B58FB00220059001200990102029
:100FE0000A9002200C9000200D904FF460100E909B
:100FF00005A8FFF77BF800B1FEE70F200090022163
:1010000002200190002002904FF4806003900020A5
:1010100004906846FFF7CAF900B1FEE7FFF782FACD
:101020004FF47A71B0FBF1F0FFF759FB0420FFF7A2
:101030006AFB002200214FF0FF30FFF729FB0FB0C1
:1010400000BD10B52648274C86B0016841F001016B
:101050000160006800F001000490049822480168D3
:1010600041F020010160416941F400714161416832
:1010700041F05501416001218162816841F0020126
:1010800081600120009069460020019002900320B9
:1010900003902046FFF734FC022000F027F80420DC
:1010A00000F024F8082000F021F8002204211C2080
:1010B000FFF7EEFA1C20FFF708FB06B010BD00009A
:1010C00000000020141002400030014000380040B1
:1010D00000080040000C01400004004000380140BE
:1010E0001C100240000801400400004000906946C6
:1010F0000120019000200290032003902046FFF77A
:10110000FFBBFEE710B5040001D1012010BD94F82B
:10111000510010B92046FFF74DFB022084F8510022
:101120002068016821F0400101606068A1680843FF
:10113000E16808432169084361690843A16901F432
:1011400000710843E1690843216A0843A16A084322
:1011500021680860A069616A000C00F0040008437F
:10116000216848602168E06A08612068C16921F44B
:101170000061C1610020044908706065012084F8A5
:101180005100002010BD00007405002038B5050096
:1011900001D1012032BD00F02EF818B92070284688
:1011A000FFF773FB00F011F800F007F821F02A01B7
:1011B000FFE7416100F013F832BD2868016921F4AE
:1011C0009041016128684169704702206070286879
:1011D000C16821F40051C160284600F010B82868A9
:1011E000C16841F40051C16000206060012060705E
:1011F00000207047054605F13804607870472DE9F6
:10120000F0470446642520680169E26821F44051F2
:10121000114301611926C168304A1140A268114387
:101220002269114362691143C1604169A26921F4D5
:101230004071114341612A4988420ED1FFF77DF97F
:101240000746FFF77AF98046FFF777F98146FFF7FF
:1012500074F98246FFF771F90DE0FFF766F907466A
:10126000FFF763F98046FFF760F98146FFF75DF904
:101270008246FFF75AF906FB08F361688900B3FB61
:10128000F1F306FB07F206FB09F7B7FBF1F7B7FB33
:10129000F5F705FB17331B013233B2FBF1F2B3FB59
:1012A000F5F3B2FBF5F203F0F00303EB0212704327
:1012B00006FB0AF3B0FBF1F0B3FBF1F3B0FBF5F082
:1012C00005FB103000013230B0FBF5F0216800F072
:1012D0000F0080188860BDE8F0870000F3E9FFFF89
:1012E0000038014038B500F035F831D1002918BF79
:1012F000002A2ED0287801282AD001202870122018
:10130000687000206860E064A064A063A087E08744
:101310002163A286E28600F04DF804D120680168BE
:1013200041F48041016000F01BF8216C0FF21910AC
:10133000C862216C0FF285008862216C0FF21510D3
:10134000086300F02CF82068416841F0020116E0C3
:10135000022032BD044604F1500568780128704728
:10136000A06AB0F5005F09D12068016821F400513E
:1013700001602068016841F40051016070474160DC
:101380000020287000F002F8002032BD20680168BB
:10139000490603D4016841F04001016070472068AC
:1013A000E38E216B00F10C02206CFFF7A2BB7047AB
:1013B00070477047A068B0F5004F704710B582B015
:1013C000446A00680068800611D40A2300220221C2
:1013D00000F037F800F015F800F027F800F031F8C9
:1013E00000F00FF80020E086012084F8510000F0A2
:1013F0000EF80028204600D014E000BFFFF7D7FF0A
:1014000013BD18B1606D40F0100060657047A068B2
:1014100028B92068C1680091806800900098606DCC
:1014200070470000FFF7C5FF13BD0A23206841681D
:1014300021F0020141600122802170472B460022E9
:101440000121204616E0000080B5406AFFF7B0FF9A
:1014500001BD000080B5406A00F1360100220A801B
:101460000A810122CA76416D41F008014165FFF70A
:10147000A0FF01BD2DE9F04104460D4690461E46F1
:10148000FFF7ADF8B8F1000F07460ED1206880686D
:101490002840A84228D016F1010FF7D09EB1FFF7DF
:1014A0009EF8C01B8642F1D20DE02068806828407B
:1014B000A84219D116F1010FF7D026B1FFF78FF826
:1014C000C01B8642F1D22068416821F0E0014160F2
:1014D00000F00DF8FFF744FF04F1500001214170C6
:1014E00000210170032000E00020BDE8F0812068A9
:1014F000016821F040010160704700007047FEE77D
:10150000FEE7FEE7FEE770477047704780B5FFF7DC
:1015100061F8BDE80140FFF70DB92348FFF71ABB9A
:101520002248FFF717BB10B52148224A01881368EB
:10153000491C5B0623D5136823F040031360018028
:1015400000221D481D4B0188491C018089B21C489E
:10155000426255391C7840F2DB123CB9914212D2FA
:1015600001211970016841F0010106E091420AD39E
:1015700000211970016849084900016010BD126816
:10158000D20748BF018010BD0E48016849060AD540
:10159000016821F0400101600021416100200649FD
:1015A00008800349088070470005002038050020A6
:1015B00000000020100000400600002075050020FB
:1015C00000040040100800400E480F4A016841F036
:1015D000010101604168114041600C4A01681140FD
:1015E0000160016821F480210160416821F4FE015D
:1015F00041604FF41F0181604FF0006004490860B2
:1016000070470000001002400000FFF8FFFFF6FEE8
:1016100008ED00E0000000000000000001020304EB
:101620000607080919E050F8041BCB0744BFA9F1CD
:1016300001035918121F0023042A41F8043BF9D270
:101640005FEA827C0B4604D54FF0000CA1F800C085
:101650009B1CD10744BF0021197050F8042B002AAD
:10166000E1D1704730B5016842688468091801EB20
:101670005203D20748BF4C440C30994200D130BDD0
:1016800011F9012B11F8015B002A04F8015B02D566
:10169000521CF9D1F1E7521EF4D5EEE710B5074917
:1016A00079441831064C7C44163404E00A68081D5D
:1016B000511888470146A142F8D110BD080000002A
:1016C0002400000061FFFFFF7800000000050020FB
:1016D0000000000091FFFFFF100100001800000053
:1016E0000000002000F00BF8002801D0FFF7D6FF23
:1016F0000020C046C046FFF77BFB00F002F8012047
:10170000704700F001B800000746384600F002F8C4
:10171000FBE7000080B5C046C046024A1100182011
:10172000ABBEFBE7260002000148804701480047A6
:10173000C915000839170008C046C046C046C04653
:10174000FFF7D0FF0000000001020304FFF7FEBF17
:10175000FFF7FEBFFFF7FEBFFFF7FEBFFFF7FEBFBD
:10176000FFF7FEBFFFF7FEBFFFF7FEBFFFF7FEBFAD
:10177000FFF7FEBFFFF7FEBFFFF7FEBFFFF7FEBF9D
:10178000FFF7FEBFFFF7FEBFFFF7FEBFFFF7FEBF8D
:10179000FFF7FEBFFFF7FEBFFFF7FEBFFFF7FEBF7D
:1017A000FFF7FEBFFFF7FEBFFFF7FEBFFFF7FEBF6D
:1017B000FFF7FEBFFFF7FEBFFFF7FEBFFFF7FEBF5D
:1017C000FFF7FEBFFFF7FEBFFFF7FEBFFFF7FEBF4D
:1017D000FFF7FEBFFFF7FEBFFFF7FEBFFFF7FEBF3D
:1017E000FFF7FEBFFFF7FEBF810087000001FC008E
:0417F00002A24A0403
:04000005080017399F
:00000001FF
